:020000040800F2
:1000000028090020B5010008ED4100088D300008E6
:1000100011400008BD020008AD4E000800000000BD
:100020000000000000000000000000005D44000827
:10003000DD05000800000000F1410008B14600089D
:10004000CF010008CF010008CF010008CF01000850
:10005000CF010008CF010008CF010008CF01000840
:10006000CF010008CF010008CF010008D10500082A
:10007000CF010008CF010008CF010008CF01000820
:10008000CF010008CF010008CF010008CF01000810
:10009000CF010008CF010008CF010008CF01000800
:1000A000CF010008CF010008CF010008CF010008F0
:1000B000CF010008C94D0008CF0100089D3000089D
:1000C00091300008CF010008CF010008CF010008DF
:1000D000CF010008A14E0008CF010008CF010008A1
:1000E000CF010008CF010008CF01000800F002F89E
:1000F00000F050F814A696E8000CB244B344DA4578
:1001000001D100F047F8BAE80F000FA696E83000DA
:10011000A5EB040504EB0607AAEB0704A7F101070A
:100120004FEA15154FEA3414A4F10104AC4201D38F
:1001300000F030F813F0010F18BFFB1A43F0010371
:1001400000F001F8DBE71847505F0000705F000027
:10015000103A24BF78C878C1FAD8520724BF30C8F3
:1001600030C144BF04680C60704700007047000055
:100170000023002400250026103A28BF78C1FBD8B0
:10018000520728BF30C148BF0B6070471FB51FBD65
:1001900010B510BD00F058F81146FFF7F7FF04F056
:1001A00087FE00F076F803B4FFF7F2FF03BC00F01F
:1001B0007DF800000948804709480047FEE7FEE750
:1001C000FEE7FEE7FEE7FEE7FEE7FEE7FEE7FEE707
:1001D00004480549054A064B70470000B54600082B
:1001E000ED00000828030020280900202805002031
:1001F000280500204FF0000200B5134694469646AD
:10020000203922BFA0E80C50A0E80C50B1F1200129
:10021000BFF4F7AF090728BFA0E80C5048BF0CC0D7
:100220005DF804EB890028BF40F8042B08BF704735
:1002300048BF20F8022B11F0804F18BF00F8012BA7
:100240007047704770477047754600F02BF8AE4610
:1002500005006946534620F00700854618B020B5D2
:10026000FFF7B6FFBDE820404FF000064FF0000753
:100270004FF000084FF0000BAC46ACE8C009ACE80A
:10028000C009ACE8C009ACE8C00921F007018D46FF
:10029000704710B50446AFF300802046BDE810401B
:1002A000FFF781BF00487047100000200149182067
:1002B000ABBEFEE72600020070470000FEE700002C
:1002C00080B500F0E7FB40F27801C2F2000108605F
:1002D00040F27400C2F200000021016040F27C0094
:1002E000C2F20000017040F27F00C2F20000017013
:1002F00040F27E00C2F20000017040F27D00C2F2C6
:100300000000017040F28000C2F20000017040F273
:100310008300C2F20000017040F28600C2F20000C9
:10032000017040F28500C2F20000017040F28400CA
:10033000C2F20000017040F28700C2F200000170BA
:1003400080BD0000F0B583B0044600F0A3FB84B18B
:1003500040F27001C2F200010968411AB1F5487F0C
:1003600007D340F27405C2F200052968411A9629A4
:1003700002D2002003B0F0BD0646286004F0AAF9BE
:10038000012809D1684604F09DF9009988B2322805
:1003900015D20023304663E040F27C04C2F2000430
:1003A000207840F27807C2F2000720B13868301A8E
:1003B000B0F5AF7FDDD900F06DFB38606BE04EF635
:1003C00060229042304601D9062349E0019A090C87
:1003D000130C92B2CF18BF1817D04FF47A7671432E
:1003E000B1FBF7F172437343B2FBF7F2B3FBF7F3E0
:1003F000B1F5D77F0BD902F14607B94207D903F10E
:100400005A07B94203D901232AE0002328E0B2F5B4
:10041000C37F09D901F12D07BA4205D903F132078B
:10042000BA4201D902231BE0B3F5BE7F09D901F11D
:100430003C07BB4205D902F12D07BB4201D903237A
:100440000EE0B3F5877F4FF0060338BF042306277D
:10045000B2F5A57F98BF3B46B1F5A57F98BF3B4657
:10046000591F11F1050F48D840F27C04C2F2000474
:10047000217849B140F27801C2F200010968401ABE
:10048000B0F5AF7F7FF675AF00F004FB40F2780166
:10049000C2F20001086040F27F010020C2F20001B8
:1004A000087040F27E01C2F20001087040F27D0146
:1004B000C2F20001087040F28001C2F2000108702F
:1004C00040F28301C2F2000128602070087040F2FF
:1004D0008601C2F20001087040F28501C2F20001FB
:1004E000087040F28401C2F20001087040F28701F6
:1004F000C2F20001087003B0F0BD40F27802591E4C
:10050000C2F200020329106008D846F22C00C0F69F
:10051000000050F8210001780131017040F27F00A5
:10052000C2F2000090F800C040F28600C2F2000063
:1005300080F800C040F27E00C2F20000027840F273
:100540008500C2F20000027040F27D00C2F200009D
:10055000037840F28400C2F20000037040F2800091
:10056000C2F20000067840F28700C2F20000067076
:1005700040F27C00C2F2000001780131CFB201707C
:1005800040F28300C2F200000C2F0170FFF4F1AEC4
:100590006245614688BF11468B420D4688BF1D46A5
:1005A000AE42284688BF3046082802D2FFF788FEB0
:1005B000DFE662454FF0010288BF02228B4288BF0E
:1005C00003220120AE4288BF0422227003B0F0BD96
:1005D00040F2DC00C2F2000000F086B87047000074
:1005E000EFF3108072B600BFFEE70000014690F8FE
:1005F0002100022813D10868D1E90FC3026822F054
:100600000E020260026822F001020260012000FA7C
:1006100003F2CCF8042081F82100002002E004203D
:1006200088630120002281F82020704790F8211073
:10063000022923D1026840F2040C1168C4F2020CB2
:1006400021F00E01116013682F21C4F202018A42C9
:1006500023F00103136015DD3023C4F202039A4234
:100660001CD04423C4F202039A421AD05823C4F285
:1006700002039A421AD14FF480331FE004218163B0
:10068000012070470823C4F202039A420CD01C23B5
:10069000C4F202039A4209D110230FE04FF4807391
:1006A0000CE04FF4805309E0012307E00CF16801EE
:1006B0004FF080738A4208BF4FF480130121CCF8B9
:1006C000003080F82110416B0022002980F82020A2
:1006D00004BF0020704780B58847002080BD00001F
:1006E00090F821007047000010B5D0E90FCE0168E6
:1006F000DCF800300A6823FA0EF35C0724D512F008
:10070000040421D00A68920603D40A6822F0040285
:100710000A602F22C4F20202914240F20402C4F2A3
:1007200002024FDD3023C4F20203994262D0442317
:10073000C4F20203994260D05823C4F202039942E2
:1007400060D14FF4802365E09C0727D512F00204A6
:1007500024D00A68920606D40A6822F00A020A60C7
:10076000012280F821202F22C4F20202914240F29D
:100770000402C4F2020231DD3023C4F202039942C2
:100780004ED04423C4F2020399424CD05823C4F201
:10079000020399424CD14FF4003351E01B0756D568
:1007A00012F0080208BF10BD0A6822F00E020A60AB
:1007B000012101FA0EF2CCF80420816380F82110A7
:1007C000016B3FE00823C4F20203994218D01C23B6
:1007D000C4F20203994215D140231BE00823C4F25E
:1007E0000203994222D01C23C4F2020399421FD172
:1007F000202325E04FF480630CE04FF4804309E0B0
:10080000042307E002F168044FF08063A14208BFAF
:100810004FF480031360C16AC9B1BDE810400847B6
:100820004FF400730CE04FF4005309E0022307E09B
:1008300002F168044FF00073A14208BF4FF40013A7
:100840001360816A0022002980F82020E5D110BDC4
:10085000B0B5044600F01EF9054640F20A00C2F2A7
:1008600000000078611C18BF044400BF00F012F9BA
:10087000401BA042FAD3B0BD2DE9F04F82B00E6804
:10088000002E00F0F78041F20042C4F2010204237E
:1008900040F2004E904208BF03234FF6FF7CC4F2A3
:1008A000010E009300240123C1F2100C4FF0000A46
:1008B0004FF000094AE041F20002C4F20102009F39
:1008C000904208BF022704F00C030F229A402BEA43
:1008D000020207FA03F34FEA9A051A4346F8252065
:1008E0004E6840F20C45F202DEF8082054BF22EABE
:1008F000080242EA0802C4F20105CEF808202A687C
:10090000B30254BF22EA080242EA08022A60B30393
:10091000DEF8042054BF22EA080242EA0802F30388
:10092000CEF80420DEF800204FF0010354BF22EA85
:10093000080242EA0802CEF800200E680AF1010A15
:1009400036FA0AF204F1040400F0948003FA0AFB78
:1009500016EA0B08F1D04E68664511DC122E51D80C
:10096000DFE806F0340A494650505050505050507D
:100970005050505050424D00D1F80C9042E000BF12
:100980004FF6FF72C1F2210296420FDC0022C1F243
:10099000110296421AD00022C1F21202964215D0DC
:1009A0000022C1F22102964210D02BE00022C1F2B7
:1009B000220296420AD00022C1F23102964205D0AC
:1009C0000022C1F2320296421CD100BF8A6842B1B5
:1009D000012A14BFC0F814B0C0F810B04FF00809D5
:1009E00010E04FF004090DE0CA6802F1040909E0C3
:1009F0004FF0000906E0CA6802F1080902E0CA687F
:100A000002F10C0902462646B8F5807F24BF043265
:100A1000203E17680F25B54027EA050509FA06F6B6
:100A200035431560CA79D2067FF587AF41F21803C6
:100A3000C4F202031A68AEF57E7642F001021A6033
:100A40001A6802F001020192019A2AF0030256F894
:100A500002B040F60002C4F20102904208D040F613
:100A60000042C4F2010290427FF425AF01272AE739
:100A7000002728E702B0BDE8F08F0000806808403A
:100A800018BF012070470000002A08BF0904016157
:100A90007047000040F22030C2F20000006870474A
:100AA00003F028BE70470000F0B581B0044600682E
:100AB00000254669426894F83E1002F48077F205FA
:100AC00008D53FB16FF4807242610268012542F49B
:100AD00000420260B20505D5002F1EBF02356FF43B
:100AE00000724261720516D5AFB1628D94F83D3047
:100AF000D4F830C0202908BF002A21D06FF48062CA
:100B0000402905F10405426101D0102903D1016893
:100B100041F400710160300505D527B12068083522
:100B20006FF4006141614DB1206C40EA050120463F
:100B3000216401B0BDE8F04002F028BB01B0F0BD77
:100B400003F0F702212A04D0282B08BFBCF1210FA3
:100B5000D4D194F83D10E26AB2F1080318BF012322
:100B6000203A18BF0122134208BF282920D021298A
:100B700038D10021CFF6FF71E162212121632021CC
:100B800084F83D10002184F83E10426822F4E062AF
:100B900042606FF480624261026822F48062026007
:100BA0004269120648BF0161204600F019FDB2E714
:100BB0000021CFF6FF71E162416821F4E0614160FC
:100BC0006FF480614161016821F48061016000205F
:100BD0002021206384F83D1084F83E00204600F078
:100BE000B3FB98E76FF48061416194E7F0B581B0A1
:100BF00007687968C26A90F83E5090F83DE0402D51
:100C000001D0102D1DD1BB697C69E60708D1B2F176
:100C10002A4F00F08A82B2F52A0F00F0868201E0A6
:100C20008A053BD4220701F4007C69D5BCF1000F92
:100C300066D0416B426C0029D2B23A6140F0B1807B
:100C4000B1E0026C01F40075002A0CBFBB690023FF
:100C50007C69A20728D53DB3016C002918BFBB6988
:100C600090F83D1001F02801282940F0D9807968DA
:100C7000012221F48061796003F0040182EA91018C
:100C80001A064FF0180258BF0C22825A002380F82F
:100C90003C3001B0BDE8F040FFF704BFC16AB1F5D8
:100CA0002A0F5AD101215DE0E20640F18A80002D31
:100CB00000F0878090F83D50796821F4E061796018
:100CC0000021009179690091396841F00101396092
:100CD0000099396821F4806139607968090540F12B
:100CE0005B8105F0F7010446222940F02B8154F87E
:100CF000381F0A68526824F80E2C34F80E2C29E1AB
:100D0000A20740F19880BCF1000F00F0948090F8A9
:100D10003E20C16A036B90F83D60222E40F09F8018
:100D2000066D002E08BF402A00F09980026D002A4F
:100D300040F091810269B2F5404F40F08C81002172
:100D4000009179690091B96900910099396841F47D
:100D500080713960016D013138E2C16AB1F12A4F09
:100D600001D10821C16290F83E1040290AD1016DDD
:100D7000406C002900F0FE0018BF40F0010038610F
:100D800001B0F0BD0169B1F5804F71D190F83D100F
:100D9000426C212902F0FE0218BF01323A61416B18
:100DA00009B1896A39B9806B002800F0BE81806A78
:100DB000002800F0BA81786840F40060786001B0E3
:100DC000F0BD0EF0F702212A60D104F08402802ADF
:100DD00040F0948011F4806100F0908090F83D1014
:100DE000428D002A00F0A181426A12F8013B3B616A
:100DF0004262428D013A4285428D002A08BF29296C
:100E000040F09381796821F4806179602121016348
:100E1000282180F83D1001B0BDE8F04000F0E0BBB3
:100E2000002100917A690092BA690092009A80F8D4
:100E30003C1001B0F0BD7A685B074ED4120500F19A
:100E4000748104F04402402A40F01E8111F4806154
:100E500000F01A8101B0BDE8F04002F0BFBA0020F6
:100E6000009078690090B8690090009801B0F0BDDA
:100E7000016D002900F0D880016D012940F05581F5
:100E8000406C062101EAD010F13078E704F044020A
:100E9000402A42D111F480613FD090F83D10428D3C
:100EA000002A00F042813A69436A1A70426A0132AC
:100EB0004262428D013A4285428D002A08BF2A29AA
:100EC00040F0338101684A6822F480624A6022213E
:100ED0000163282180F83D10B8E0120500F125815A
:100EE00004F08402802A40F0D98011F4806100F07F
:100EF000D58001B0BDE8F04002F038BB610740F199
:100F00001481002D00F01181418D002900F00D8128
:100F1000416A11F8012B3A610EE0610740F1058149
:100F2000002D00F00281418D002900F0FE8039691A
:100F3000426A1170416A01314162418D0139418536
:100F400001B0F0BD54F8341F0A68526824F80A2C26
:100F500034F80A2C1AB1026C42F0040202647A6876
:100F6000064622F4006208467A60FFF7B9FB0146A4
:100F70003046012910D0206843F2A901C0F60001D3
:100F80004163FFF753FB0146304629B1216804460F
:100F90004A6B084690472046418DF9B101684A697D
:100FA000520708D50969426A1170416A01314162EC
:100FB000418D0139418501684A69520608D50969A0
:100FC000426A1170416A01314162418D01394185A6
:100FD000418D19B1016C41F004010164016C21B132
:100FE00001B0BDE8F04002F0D1B82A2D08D10021AF
:100FF0000163282180F83D10044600F0EFFA2046F6
:1010000090F83D10282915D10021CFF6FF71C1625B
:1010100000212022016380F83D2080F83E1001B0BD
:10102000BDE8F04000F090B9406C062101EAD01014
:10103000F030A4E6016B222918BF222D75D10021C2
:101040002022016380F83D2080F83E1001B0BDE809
:10105000F04000F0C3BA428D52B1428D012A2AD12C
:10106000202918BF082962D1396821F480613960CC
:101070000021009179690091B9690091009939685E
:1010800041F400713960A0E061074ED5BCF1000F5A
:101090004BD001B0BDE8F04002F026B9610744D55D
:1010A000BCF1000F41D0BEF1210F37D101B0BDE836
:1010B000F04002F01BBA428D022A14D110295FD8E9
:1010C000012214238A40C0F201031A4258D03A6820
:1010D00042F480623A60002200927A690092BA6912
:1010E0000092009A5BE03A6842F480623A607A6863
:1010F00012053DD54A1E1F2A08D8012303FA02F221
:1011000048F28103C8F200031A4202D111F5803F70
:101110002ED1796841F48051796029E0402D04D1C5
:1011200001B0BDE8F04002F079BA01B0F0BD11F5B0
:10113000803F0AD1396821F48061396079680905F6
:1011400096D5396821F4806111E0122B02D1012972
:101150007FF48AAF1029F4D8012202FA01F1142297
:10116000C0F201021142ECD0396841F4806139606B
:101170000021009179690091B9690091009924E0FA
:101180003A6842F400623A60002200927A69009262
:10119000BA690092009A3A6822F480623A607A68EA
:1011A000120512D54A1E1F2A08D8012303FA02F29B
:1011B00048F28103C8F200031A4202D111F5803FC0
:1011C00003D1796841F4805179600021016501B053
:1011D000F0BD000003F0A6BA002804BF012070474C
:1011E000F0B581B0044690F83D0028B9002084F89D
:1011F0003C00204600F0A2F9242084F83D0020683D
:10120000016821F001010160016841F400410160C1
:10121000016821F40041016000F0FEFB636848F2C0
:10122000A16CC0F2010C40F60011C0F23D01634513
:101230003CBF48F28041C0F21E01884202D2012028
:1012400001B0F0BD4DF68361C4F21B31A0FB011269
:101250002168970CD1F804E04FF496762EF03F0504
:1012600045EA92454D60774348F638160D6AC0F25C
:101270004106A7FB067625F03F07634538BF960C6D
:10128000721C3A430A62CA6948F2A0664CF6FF77BC
:10129000C0F20106B34222EA070C0AD801385A000C
:1012A000B0FBF2F001306FF31F30042898BF042028
:1012B00020E0A2681927002A08BF032701385F43EE
:1012C000B0FBF7F701373F0509D052B119225A4355
:1012D000B0FBF2F00422013062F31F3008E001207D
:1012E00008E003EB4302B0FBF2F001306FF31F3074
:1012F00040F4004040EA0C00C8610868D4E90723C4
:1013000020F0C000104318430860886848F2FF329C
:1013100004F10C0790438CCF18431043A6698860F2
:10132000C86820F0FF0038433043C860086840F0C8
:101330000100086000202021206484F83D10206313
:1013400084F83E0001B0F0BD704700007047000017
:101350007047000003F0FEB903F018BA70B581B011
:101360000024009490F83D40202C22D140F200044B
:10137000C2F200042468DDE9056E4FEAD40C4BF29A
:101380008954C1F2F844ACFB044C4FEA1C241925E3
:1013900065430095009D013D0095009D65B1D0F825
:1013A00000C0DCF81840A407F4D490F83C40012CAD
:1013B0000DD1022001B070BD00212022016380F810
:1013C0003D2080F83E1000F1400102203CE0012465
:1013D00080F83C40DCF80040E40705D1DCF8004030
:1013E00044F00104CCF80040DCF80040002524F46F
:1013F0000064CCF80040222480F83D40402480F86E
:101400003E40002404644662A0F82AE0468DCFF6F0
:10141000FF750685C56241648264C3640465DCF8B7
:10142000001041F48061CCF80010DCF8001041F4A9
:101430008071CCF8001080F83C404FF0000036B1CD
:101440000CF104014FF4E0620B681A430A6001B02A
:1014500070BD000070B581B00024009490F83D404C
:10146000202C22D140F20004C2F200042468DDE9FD
:10147000056E4FEAD40C4BF28954C1F2F844ACFB30
:10148000044C4FEA1C24192565430095009D013D3D
:101490000095009D65B1D0F800C0DCF81840A407A5
:1014A000F4D490F83C40012C0DD1022001B070BD65
:1014B00000222021026380F83D1080F83E2000F1D8
:1014C000400C022032E0012480F83C40DCF800406F
:1014D000E40705D1DCF8004044F00104CCF80040FA
:1014E000DCF8004024F40064CCF80040212480F8AB
:1014F0003D40402480F83E40002404644662A0F849
:101500002AE0468D06850026CFF6FF76C662416446
:101510008264C3640465DCF8001041F480714CF807
:10152000041B80F83C4000204FF4E061DCF8002010
:101530001143CCF8001001B070BD000010B586B0AA
:10154000006845F20041C4F2000188424FF00000FB
:10155000CDE90400CDE9020001D006B010BD41F292
:101560001804C4F20204206802A940F008002060B8
:10157000206800F00800019001984FF4407002903C
:10158000122003900320059040F60040C4F20100B1
:10159000FFF772F90420C4F201000168002241F053
:1015A000E06141F0020101606068002140F4001038
:1015B0006060606800F40010019001981F2000F046
:1015C00095F81F2000F080F820200021002200F074
:1015D0008DF8202000F078F806B010BD70470000AC
:1015E0007047000040F20A0040F22031C2F20000D1
:1015F000C2F2000100780A681044086070470000D9
:1016000080B542F20000C4F20200016841F010010E
:101610000160032000F096F80F2000F005F800F0BC
:101620002BF8002080BD0000B0B540F20A02C2F2E3
:10163000000240F200011278C2F200014FF47A7306
:101640000968B3FBF2F20446B1FBF2F1084600F080
:10165000A7FB0F2C4FF001050CD858B94FF0FF3005
:1016600021460022002500F041F840F20C00C2F2B1
:10167000000004602846B0BD80B582B041F2180079
:10168000C4F202000168002241F00101016001681A
:1016900001F0010101910199416841F080514160DF
:1016A00040680F2100F08050009000986FF001001A
:1016B00000F01CF80420C4F201000168022262F369
:1016C0001A61016002B080BD002848BF704700F079
:1016D0001F01012202FA01F11C2202EAD0004EF29F
:1016E0000012CEF2000281507047000010B54EF695
:1016F0000C5CCEF2000CDCF80030C3F3022E8EF04E
:101700000704042C28BF0424BEF103034FF0FF3E5E
:101710000EFA04F438BF0023A14399400EFA03F3F4
:101720009A43114300F1604200F00F03090102F5F2
:101730006442043B6344002848BF03F10C0211706B
:1017400010BD00004EF60C51CEF200010A684FF6B3
:10175000FF031A4060F30A2242F0806040F0FD70FF
:10176000086070472DE9F04182B00446007841F2EC
:101770001C06C007C4F202064AD030685FEAC008FF
:1017800008D4306840F080503060306800F08050FD
:101790000190019847F20007C4F200073868C005BD
:1017A00012D4386840F480703860FFF773F905464A
:1017B0003868C00508D4FFF76DF9401B6428F7D9D5
:1017C000032002B0BDE8F081706810F4407012D0C0
:1017D000616801F4407188420DD0706840F2404267
:1017E000C4F24222012320F4407113600023C00799
:1017F0001360716025D17068616820F440700843FF
:10180000B8F1000F706003D4306820F08050306071
:101810002068810707D556F8181CA26821F44041BA
:10182000114346F8181CC00607D556F8180CE16895
:1018300020F48000084346F8180C002002B0BDE8F0
:10184000F081FFF727F9054641F288377068800775
:10185000D1D4FFF71FF9401BB8424FF00300F5D970
:10186000ECE70000002804BF012070472DE9F04399
:1018700081B042F20008C4F202080446D8F8000021
:101880000D4600F0070081420CD9D8F8000020F086
:1018900007002843C8F80000D8F8000000F007004F
:1018A000A8426BD1206841F204098107C4F2020901
:1018B00017D5410705D5D9F8001041F4E061C9F802
:1018C0000010010705D5D9F8001041F46051C9F89E
:1018D0000010D9F80010A26821F0F0011143C9F8F6
:1018E0000010C00741D1D8F8000000F00700854281
:1018F0000CD2D8F8000020F007002843C8F80000F8
:10190000D8F8000000F00700A84237D1206841074E
:1019100007D5D9F80010E26821F4E0611143C9F855
:101920000010000708D5D9F80000216920F46050A4
:1019300040EAC100C9F80000D9F8002002F00C000C
:10194000082841F20020C0F27A0049D146F256033D
:10195000C2F38341C0F60003595CD20334D440F68D
:101960000010C0F23D0048433AE0606859F8041C9A
:10197000022807D0012824D1890305D4012001B011
:10198000BDE8F0838901F9D5D9F8001021F00301F1
:101990000843C9F80000FFF77DF8064641F2883792
:1019A000D9F80000616800F00C00B0EB810F9AD00C
:1019B000FFF770F8801BB842F2D9032001B0BDE8F0
:1019C000F0838907DAD5DFE7D9F8002046F254031F
:1019D000C2F34042C0F600039A5C4843B0FBF2F009
:1019E000D9F8001046F23C02C1F30311C0F6000220
:1019F000515C40F2000220FA01F140F20C00C2F208
:101A000000000068C2F200021160FFF70DFE002026
:101A100001B0BDE8F083000040F2000041F2040193
:101A2000C2F20000C4F202010068096846F24C02EA
:101A3000C1F30221C0F60002515CC84070470000AB
:101A400040F2000041F20401C2F20000C4F20201BF
:101A50000068096846F24C02C1F3C221C0F60002D8
:101A6000515CC84070470000002804BF0120704747
:101A70002DE9F04182B00446007841F20006C0072B
:101A8000C4F2020647D0706800F00C00042808D1A8
:101A9000306880033FD56068E8BB012002B0BDE834
:101AA000F081706800F00C00082802D17068C00353
:101AB000EED4656830682DB1B5F5A02F09D0B5F525
:101AC000803F0AD020F480303060306820F48020DD
:101AD00005E040F480203060306840F480303060B1
:101AE000FEF7D8FF002D054612D000BF30688003F6
:101AF00011D4FEF7CFFF401B6428F7D916E100BFD1
:101B0000FEF7C8FF401B64284FF0030000F2D880A6
:101B100030688003F4D42078800719D5706810F0FD
:101B20000C0F07D0706800F00C00082827D17068EF
:101B3000C00324D43068800703D52069012840F011
:101B4000A6803068616920F0F80040EAC10030608A
:101B5000207800074ED5A06938B30020C4F2422097
:101B60000121C0F88014FEF795FF0546706A8007D2
:101B70002DD4FEF78FFF401B0228F7D9D6E020694D
:101B8000002840F20000C4F2422000F0A8800121A9
:101B90000160FEF77FFF054630688007D1D4FEF76D
:101BA00079FF401B0228F7D9C0E00020C4F2422090
:101BB0000021C0F88014FEF76DFF0546706A8007AB
:101BC00018D5FEF767FF401B0228F7D9AEE040F2B8
:101BD0000000C2F20000006844F6D351C1F2620175
:101BE000A0FB0101480A019000BF0198411E002896
:101BF0000191F9D12078400717D4E5698DB170685B
:101C000000F00C00082846D1012D40D07068216AF0
:101C100000F480328A423AD1616A00F4701088423E
:101C200035D1002002B0BDE8F081F0695FEAC0085C
:101C300008D4F06940F08050F061F06900F0805005
:101C40000090009847F20007C4F200073868C0050A
:101C50000FD4386840F480703860FEF71BFF0546EB
:101C60003868C00505D4FEF715FF401B6428F7D976
:101C70005CE0E568306A1DB1052D41D0012D43D0EF
:101C800020F001003062306A20F004003EE00120C4
:101C900002B0BDE8F0810027C4F242270020386678
:101CA000FEF7F8FE022D05460ED100BF3068800118
:101CB00053D5FEF7EFFE401B02284FF00300F5D985
:101CC00002B0BDE8F08100BF30688001A9D5FEF701
:101CD000E1FE401B02284FF00300F5D9F0E7002198
:101CE0000160FEF7D7FE0546306880077FF530AF0C
:101CF000FEF7D0FE401B02284FF00300F4D9DFE7C7
:101D000040F004003062306A40F001003062FEF7BB
:101D1000C1FE002D054641F2883712D0306A800797
:101D200012D4FEF7B7FE401BB842F7D9032002B029
:101D3000BDE8F081FEF7AEFE401BB8424FF0030055
:101D4000BED8306A8007F5D4B8F1000F3FF555AF23
:101D5000F06920F08050F0614FE7206AB0F5803FD5
:101D600005D17168A26821F4003111437160716876
:101D7000626A21F4741111430843706001203866CF
:101D8000FEF788FE044600BF306880013FF549AF8A
:101D9000FEF780FE001B02284FF00300F4D98FE706
:101DA000411E0020B0EB116F1CBF012070474EF2A6
:101DB0001002CEF2000251604EF62351CEF2000125
:101DC000F0230B700721906011607047704700008E
:101DD0007047000090F83C20012A04BF02207047A1
:101DE000B0B501F108053CCDD1E900CE23F47C5318
:101DF00022F470521A432EF4F0431A432CF4E043B9
:101E00001A4324F4C0431A432A43C96922F4804286
:101E1000036811435964002180F83C100020B0BDD4
:101E200090F83C20012A4FF0020234D010B5012373
:101E300080F83C3080F83D200268D2F804E0D2F807
:101E400008C00C682EF07003234340F2FF74C4F204
:101E50000004A242536005DCB2F1804F0ED040F284
:101E6000004307E042F60043C4F201039A4205D062
:101E700040F60003C4F200039A4204D149682CF0F2
:101E80008003194391600121002280F83D1080F801
:101E90003C20BDE81040104670470000002804BFF9
:101EA0000120704710B590F83D1031B9002180F83D
:101EB0003C10044600F066F82046022180F83D10F0
:101EC000016840F2FF740B68C4F2000442F6004C53
:101ED000A142C4F2010C05DCB1F1804F0AD040F2FE
:101EE000004203E0614505D040F60002C4F2000262
:101EF000914203D1826823F070031343A14205DCB1
:101F0000B1F1804F0AD040F2004203E0614505D0B4
:101F100040F60002C4F20002914203D1026923F4A8
:101F200040731343846923F08002D0F804E0C3684F
:101F3000224361450A60CB62C1F828E002D14269C0
:101F4000CCF8302001224A610B69DB0703D00B6912
:101F500023F001030B6180F8462080F83E2080F8D2
:101F60003F2080F8402080F8412080F8422080F80F
:101F7000432080F8442080F8452080F83D20002050
:101F800010BD000080B586B0006840F20042C4F287
:101F90000002002190420591CDE90311029111D078
:101FA000B0F1804F48D141F21C00C4F20200016838
:101FB00041F001010160006800F00100019001980A
:101FC00006B080BD41F21C00C4F20200026842F07B
:101FD00002020260026802F002020192019A50F8C5
:101FE000042C42F0080240F8042C50F8040C00F0D5
:101FF0000800019001981020CDE9020140F6004050
:102000000491C4F2010002A9FEF736FC0420C4F2D8
:10201000010001684FF2FF32CFF6FF02114041F09C
:10202000E06141F4006101601D2000210022FFF702
:102030005DFB1D20FFF748FB06B080BD90F83C20FB
:10204000012A4FF002026ED080B5012380F83C30A7
:1020500080F83D20D0F800C04FF67772DCF80830E9
:1020600023EA0202CCF808200B684F2B28DC1F2B38
:1020700044DD202B45D0302B43D0402B40F0AC80AA
:10208000D1F804E0C968DCF82030DCF8202022F028
:102090000102CCF82020DCF8182022F0F00242EAFD
:1020A000011123F00A0242EA0E02CCF81810CCF813
:1020B0002020DCF8081041F0470121F0300127E032
:1020C0006F2B32DDB3F5005F73D0B3F5805F21D0A5
:1020D000702B40F08180D1E901E3C968DCF8082069
:1020E00043EA0E0322F47F4243EA01211143CCF874
:1020F0000810DCF8081041F0770109E00BB1102B53
:102100006AD1DCF8081021F07001194341F0070191
:10211000CCF808100022012180F83D10002180F841
:102120003C10BDE8804010467047502B21D0602BFA
:1021300052D1D1F804E0C968DCF82030DCF8202066
:1021400022F01002CCF82020DCF8182022F4704293
:1021500042EA013123F0A00242EA0E12CCF8181034
:10216000CCF82020DCF8081041F0670121F01001C4
:10217000CEE7D1F804E0C968DCF82030DCF8202094
:1021800022F00102CCF82020DCF8182022F0F00226
:1021900042EA011123F00A0242EA0E02CCF81810BA
:1021A000CCF82020DCF8081041F0570121F0200184
:1021B000AEE7D1E901E3C968DCF8082043EA0E0381
:1021C00022F47F4243EA01211143CCF80810DCF8E5
:1021D000081041F480419BE701229CE7014640F250
:1021E000BC00C2F2000000F0E5BE000090F83C30F8
:1021F000012B04BF022070474FEAB2020123032AD9
:1022000080F83C3000F2A380F0B5DFE802F002571E
:102210001B390368D1E900C5D1F80CE01C6A1A6AC1
:1022200040F2FF7722F001021A621A4652F8186F44
:10223000C4F20007BB4267DCB3F1804F70D040F2BC
:10224000004769E00768D1E900C5D1E902313C6A7D
:102250003A6A61F3071522F480723A623A4652F8FC
:102260001C6F26F0F30645EA06014FEA5C0666F3AA
:10227000492411603C62116821F00C01116060E09A
:102280000368D1E900E6D1E902C11C6A1A6A360284
:1022900022F480521A621A4652F81C5F4FF2FF076E
:1022A000BE4325F4734561F30F364FEA5E0746EAF5
:1022B000050167F34D3411601C621EE00368D1E92B
:1022C00000E6D1E902C11C6A1A6A360222F0100245
:1022D0001A621A4652F8185F4FF2FF07BE4325F400
:1022E000734561F30F3624F0A0040EF00A0746EAA6
:1022F000050144EA071711601F6211684FEA0C23B9
:1023000021F4406111601CE042F60047C4F201076D
:10231000BB4205D040F60007C4F20007BB421BD108
:1023200026F00306354324F00A070CF00A066EF384
:10233000071537449D611F629F6927F00C079F6155
:102340008B681168194300231160BDE8F04000213B
:1023500080F83C101846704746F00105E3E700009E
:10236000002804BF0120704710B590F83D1031B926
:10237000002180F83C10044600F066F82046022157
:1023800080F83D10016840F2FF740B68C4F200044D
:1023900042F6004CA142C4F2010C05DCB1F1804FC1
:1023A0000AD040F2004203E0614505D040F6000249
:1023B000C4F20002914203D1826823F070031343F8
:1023C000A14205DCB1F1804F0AD040F2004203E0A7
:1023D000614505D040F60002C4F20002914203D1EB
:1023E000026923F440731343846923F08002D0F818
:1023F00004E0C368224361450A60CB62C1F828E06B
:1024000002D14269CCF8302001224A610B69DB0716
:1024100003D00B6923F001030B6180F8462080F89C
:102420003E2080F83F2080F8402080F8412080F84E
:10243000422080F8432080F8442080F8452080F82E
:102440003D20002010BD00007047000041220829F7
:1024500008BF4022042908BF3F22002908BF3E22AE
:1024600045230829825C08BF4423042908BF43236D
:10247000002908BF4223012A4FF00102C35C08BFB4
:10248000012B01D010467047022249B1082913D010
:10249000042914BF80F8412080F83F2019B90FE0CB
:1024A00080F83E2061B108290DD0042914BF80F8BE
:1024B000452080F8432008E080F840200029F2D130
:1024C00080F8422001E080F8442080B54FEAB10353
:1024D000032B11D846F2680CD0F800E0C0F6000CCF
:1024E0005CF823C0DEF80C2042EA0C02CEF80C2087
:1024F0000022032B03D930E00122032B2DD80068E2
:1025000001F01F014FF0010C036A0CFA01F18B433B
:102510000362036A194340F2FF73C4F20003984256
:10252000016205DCB0F1804F0ED040F2004107E0BF
:1025300042F60041C4F20101884205D040F6000194
:10254000C4F20001884204D1816801F00701062924
:1025500003D0016841F001010160BDE880401046F0
:102560007047000070B504460068C5680669B10789
:1025700016D515F0020113D06FF00201016101219F
:1025800021778069800703D02046FFF727FE05E00A
:10259000204600F08DF8204600F018FA0020207741
:1025A000700718D515F0040015D020686FF00401ED
:1025B000016102212177806910F4407F03D0204619
:1025C000FFF70CFE05E0204600F072F8204600F010
:1025D000FDF900202077300717D515F0080014D03A
:1025E00020686FF00801016104212177C06980072C
:1025F00003D02046FFF7F2FD05E0204600F058F832
:10260000204600F0E3F900202077F00618D515F0F9
:10261000100015D020686FF01001016108212177AA
:10262000C06910F4407F03D02046FFF7D7FD05E0D6
:10263000204600F03DF8204600F0C8F90020207741
:10264000F00718BF15F0010002D1300609D412E0DE
:1026500020686FF001010161204600F015FA300694
:1026600009D515F0800006D020686FF08001016167
:102670002046FFF7ABFB700609D515F0400006D0E9
:1026800020686FF040010161204600F00BFAB006AF
:1026900058BF70BD15F0200008D021686FF02002EF
:1026A00020460A61BDE87040FFF792BB70BD000094
:1026B0007047000090F83C30012B04BF02207047A7
:1026C0004FEAB2020123032A80F83C3000F2EC808A
:1026D0002DE9F041DFE802F002A63B76036842F6FE
:1026E00000451C6A1A6AC4F2010522F001021A624E
:1026F0001A46D3F804C052F818EF8E6824F002048A
:10270000AB4244EA060405D1CE6824F00C0426F05E
:10271000040634430E68AB4206D1D1E905582CF4C7
:1027200040772F4347EA080C2EF073073743C3F86E
:1027300004C09F614F6809695F631C629F6947F02D
:1027400008079F619F6927F004079F61A6E003685F
:1027500042F600451C6A1A6AC4F2010522F480722E
:102760001A621A46D3F804C052F81CEF8E6824F49B
:102770000074AB4244EA062407D1CE6840F2FF471A
:10278000360224F44064BE4334430E68AB4206D1A3
:10279000D1E905572CF4405C3D434CEA051C2EF072
:1027A00073073743C3F804C0DF614F680969DF630B
:1027B0001C62DF6947F00807DF61DF6927F0040763
:1027C000DF616BE0036842F60047D3F820C01A6A65
:1027D000C4F2010722F480521A621A465C6852F869
:1027E0001C5FD1F800E08E68BB4204D14F6924F42D
:1027F000804444EA87142CF4005747EA063725F44E
:10280000E64646EA0E265C60DE614E6809691E6493
:102810001F62DF6947F40067DF61DF6927F48067C3
:10282000DF613AE0036842F600451C6A1A6AC4F2A6
:10283000010522F010021A621A46D3F804C052F8B9
:1028400018EF8E6824F02004AB4244EA061407D146
:10285000CE686FF0400724F0C00407EA0616344340
:102860000E68AB4206D1D1E905572CF4406C3D43CC
:102870004CEA850C2EF4E64747EA0627C3F804C065
:102880009F614F6809699F631C629F6947F40067F5
:102890009F619F6927F480679F610902136819434C
:1028A00000231160BDE8F041002180F83C1018467B
:1028B00070470000002804BF0120704710B590F851
:1028C0003D1031B9002180F83C10044600F066F854
:1028D0002046022180F83D10016840F2FF740B6829
:1028E000C4F2000442F6004CA142C4F2010C05DC23
:1028F000B1F1804F0AD040F2004203E0614505D0BB
:1029000040F60002C4F20002914203D1826823F033
:1029100070031343A14205DCB1F1804F0AD040F2AD
:10292000004203E0614505D040F60002C4F2000217
:10293000914203D1026923F440731343846923F065
:102940008002D0F804E0C368224361450A60CB628C
:10295000C1F828E002D14269CCF8302001224A6156
:102960000B69DB0703D00B6923F001030B6180F8CF
:10297000462080F83E2080F83F2080F8402080F8F4
:10298000412080F8422080F8432080F8442080F8DD
:10299000452080F83D20002010BD0000006842F670
:1029A0000041C4F20101884218BF704781B041F272
:1029B0001800C4F20200016841F40061016000687F
:1029C00000F400600090009801B07047704700006C
:1029D0004122082908BF4022042908BF3F220029BC
:1029E00008BF3E22825C012A1CBF012070470222E0
:1029F00041B1082909D0042914BF80F8412080F88A
:102A00003F2004E080F83E2001E080F8402000688C
:102A100001F01F010122036A8A4023EA02010162D8
:102A2000036A42F64441C4F201011A43A1F144038E
:102A30009842026203D10A6842F400420A6040F2FE
:102A4000FF71C4F20001884205DCB0F1804F0ED066
:102A500040F2004107E042F60041C4F20101884221
:102A600005D040F60001C4F20001884206D1816819
:102A700001F00701062904BF00207047016841F0FA
:102A80000101016000207047704700004FEAB1016A
:102A9000032984BF00207047006800EB8100406B71
:102AA000704700007047000070470000006843F660
:102AB0000001C4F20101884218BF704740F21E3085
:102AC000C2F200000021017070470000B0B582B072
:102AD00001680A68CC684B6902F02F05202D04F0CC
:102AE000200505D125B102B0BDE8B04002F078B9AB
:102AF0005FEA027C1EBF03F0010E04F4907313EB37
:102B00000E0340D1036BD50618D5012B16D114F056
:102B1000100313D0002201920A6801924A680192C0
:102B2000019A4969490647D4818DC28DC38D002B16
:102B300018BF914240F0108102B0B0BD13062AD5F3
:102B400014F0800327D090F84120212AF4D1826824
:102B5000B2F5805F03D10269002A00F03081026A79
:102B6000531C036212784A60C28C013A1304C28477
:102B7000E2D1C86820F08000C860C86840F040001A
:102B8000C86002B0B0BDD10718BF14F480715CD129
:102B9000510760D466E05206CED514F04002CBD087
:102BA000CA6822F04002CA60202180F8411002B0B9
:102BB000BDE8B04000F0CCB9C16B0A68526893B26E
:102BC000002BB9D0858DAB42B6D2C2858969202948
:102BD00034D000BF016851E8031F026821F48071FE
:102BE00042E80313002BF5D1016851E8051F026884
:102BF00021F0010142E80513002BF5D1016851E8ED
:102C0000051F026821F0400142E80513002BF5D1B1
:102C1000202180F842100021016300BF016851E8C3
:102C2000031F026821F0100142E80313002BF5D1C5
:102C3000C16B04460846FDF7D9FC204602214163DA
:102C4000818DC28D891A89B2AFE0416C41F00101DA
:102C50004164510706D5BEF1000F03D0416C41F02D
:102C600002014164910706D5BEF1000F03D0416C0B
:102C700041F004014164BCF1000F06D55EEA050194
:102C800003D0416C41F008014164416C00293FF4DC
:102C900053AF910604D51DB1044602F0A1F82046B9
:102CA00001684969426C01F0400102F0080289188C
:102CB0004BD000BF016851E8031F026821F49071F6
:102CC00042E80313002BF5D1016851E8051F0268A3
:102CD00021F0010142E80513002BF5D1016B012918
:102CE0000AD100BF016851E8031F026821F01001FA
:102CF00042E80313002BF5D1202180F84210002177
:102D0000016301684969490654D500BF016851E86B
:102D1000051F026821F0400142E80513002BF5D1A0
:102D2000C16B002946D044F6D552C0F600020446D5
:102D300008464A63FDF77AFC00283FF4FDAEE06BDD
:102D4000416B02B0BDE8B04008470446FFF7AEFE55
:102D50000020606402B0B0BD891A00BF026852E86A
:102D6000032F036822F4907243E80325002DF5D168
:102D7000026852E8052F036822F0010243E80525A6
:102D8000002DF5D1202280F842200022026300BFEE
:102D9000026852E8032F036822F0100243E803257B
:102DA000002DF5D1022289B2426302B0BDE8B040E5
:102DB000FFF77ABE02B0BDE8B040FFF777BE026A07
:102DC00032F8023B6FF35F234B600262CCE60000F7
:102DD000002804BF0120704710B5044690F8410058
:102DE00028B9002084F84000204600F061F8242033
:102DF00084F841002068D4E90212C36823F4005328
:102E0000C360036923F440531A430261D4E90423E5
:102E10001143C268194341F20C639A431143C160E4
:102E20004169A26921F44071114343F60002C4F2E2
:102E300001029042416102D0FEF7EEFD01E0FEF793
:102E4000FFFDD4E90023192148439900B0FBF1F0BC
:102E500048F21F5CC5F2EB1CA0FB0C314FF69C73D3
:102E60004909C0F6FF7301FB0300322303EB001096
:102E7000A0FB0C03F02000EA531000EB0110C3F399
:102E80004311084490601069202120F490401061A3
:102E9000506920F02A005061D06840F40050D060A2
:102EA0000020606484F8411084F84210606310BD13
:102EB00070B586B040F60044C4F20104006804F521
:102EC0003051002688420596CDE90366029601D06E
:102ED00006B070BD41F21800C4F20200016802ADF4
:102EE00041F480410160016801F480410191019940
:102EF000016841F0080101600068294600F00800FF
:102F00000190019840200290022003900320059038
:102F10002046FDF7B1FC8020CDE902062046294677
:102F20000496FDF7A9FC0420C4F201000168002208
:102F300041F0E06141F00401016025200021FEF72D
:102F4000D5FB2520FEF7C0FB06B070BD7047000022
:102F5000006843F60001C4F20101884218BF7047BF
:102F600040F21E30C2F200000021017070470000E4
:102F7000B0B504460068A18800220025FDF784FD55
:102F80000220FDF765FC65612576E561B0BD0000B6
:102F90000146007E00284FF0000008BF7047087609
:102FA00048694CF60931C8F63D51A0FB01014809BA
:102FB0007047000070B5054600690C460968006856
:102FC000814218BF70BDA868A989FDF757FD064664
:102FD00020460021FFF75AFD012E0AD1E861206842
:102FE000016A21F00A010162016A41F002010162F5
:102FF00070BDE969EA694FF6FF73884238BF18442B
:10300000801A6861012028762068016A21F00A018F
:103010000162016A016270BD10B5A8B3044600697F
:10302000002808BF10BD00680022016A21F00A01D3
:103030000162016A0162002020762068A188FDF704
:1030400023FD206940B1006830B1416A4FF6FE723D
:10305000436A5B1A1342FBD02068A1880122FDF766
:1030600013FD206948B1006838B1416A4FF6FC721F
:10307000436A5B1A13400C2BFAD32068A188002204
:10308000BDE81040FDF700BD10BD0000FEE70000E8
:1030900040F22010C2F20000FDF706BD40F2201001
:1030A000C2F20000FDF7A2BD10B581B00021009171
:1030B000406A40F20001C2F2000190F83DC0096888
:1030C0004BF28952C908C1F2F842A1FB0212110A5F
:1030D00023225143009100BF009939B10099013971
:1030E0000091016809688905F6D403E0016C41F09C
:1030F00020010164446B4FF0000E002C1CBF002126
:10310000A162816B00291CBF00228A620268002C28
:10311000136823F480631360A0F82AE018BFC4F892
:1031200034E000291CBF00234B63116821F001012A
:10313000116090F83D1060290BD1202180F83D10DE
:10314000002180F83E10016401B0BDE81040FDF799
:10315000A7BC0CF0280128290DD1116841F001010C
:103160001160116841F48061116000210163282120
:1031700080F83D1005E0202180F83D10002180F806
:103180003E1001B0BDE81040FEF724B810B504466B
:1031900090F83D0094F83E10B1F1100218BF0122E2
:1031A000403918BF01210A4208BF222804D12168F2
:1031B0000A6822F400620A6000F02801282905D17B
:1031C00000202063282084F83D000DE02168496834
:1031D000090507D4602805D0202084F83D00002090
:1031E00084F83E00002020632068416809051AD455
:1031F00094F83D10602935D1202184F83D1000213C
:1032000021644169490605D50069616A0870606AF0
:10321000013060622068016821F0010101602046F0
:10322000FDF73EFC3EE0416821F400614160606BC7
:1032300090F82110012922D1A06B43F2A901C0F618
:1032400000014163FDF7F2F960B320684169490666
:1032500005D50069616A0870606A013060622168A2
:10326000A06B16E04169490605D50069616A0870DE
:10327000606A013060622046FDF7ACFF12E043F265
:10328000A901C0F600014163FDF7D0F950B12168F2
:10329000606B0A6822F001020A60202184F83D1068
:1032A000416B8847206C000704D02068416821F4F6
:1032B000E061416094F83D00216C490758BF10BDA2
:1032C00028280FD10020CFF6FF70E06200212020D7
:1032D000216384F83D00204684F83E10BDE810408C
:1032E000FEF732B810BD0000C16A428D042A07D132
:1032F0000168426A4B6823F480634B60096911E0FE
:10330000428D032A16D102680229536823F4806390
:10331000536005D0042903D0116821F48061116045
:103320001169426A1170416A01314162418D01396E
:1033300041857047428D022A11D14A1E0F2A16D8A4
:10334000DFE802F0081015101515151515151515DF
:10335000151515080268136823F480630BE00168F3
:10336000426ACBE70268136843F4806303E00268B3
:10337000136843F4007313600268436A12691A7099
:10338000426AD0F800C0531C4362438D013B438521
:10339000DCF810305370426A036801324262428D99
:1033A000013A42855A6822F440725A60202280F81D
:1033B0003D2090F83E300022402B80F83E2002D184
:1033C0000263FDF7C7BFB1F1080218BF122220390E
:1033D00018BF11460163FDF7B9BF000081B090F836
:1033E0003D10222910D1C16A428D042A0ED30168F2
:1033F000426A09691170416A01314162418D0139A6
:103400004185418D032923D001B07047C36A012A49
:103410001ED8022B1CD00022009240F20002C2F201
:10342000000212684BF28953D208C1F2F843A2FBA2
:1034300003231A0A02EB8202009200BF009A013AAB
:103440000092009A5AB103681B689B05F6D40AE003
:103450000068416821F48061416001B07047036CED
:1034600043F0200303640368F2B11A6822F4806217
:103470001A605A6822F4E0625A601A69436A1A7044
:10348000426A01324262428D013A4285202280F82E
:103490003D2090F83E300022402B80F83E2019D18C
:1034A000026301B0FDF756BF596821F4E06159602D
:1034B0001969426A1170416A01314162418D0139D5
:1034C0004185202180F83D10002180F83E1001B098
:1034D000FDF780BEB1F1080218BF1222203918BFD3
:1034E0001146016301B0FDF731BF0000C16A90F8D9
:1034F0003D20212A18BF7047428D4AB1416A0268B7
:1035000011F8013B13614162418D013941857047DA
:1035100011F5803F18BF082917D101684A6822F4C5
:10352000E0624A600A6842F400720A6000212022C8
:10353000016380F83D2090F83E2080F83E10402A3C
:1035400008BFFDF709BFFDF703BF2029E5D00168DB
:103550004A6822F4E0624A6011210163002180F888
:103560003E10202180F83D10FDF7F2BE90F83D108E
:1035700090F83EC0C26A038D002B08BF212919D0E4
:10358000212905D0BCF1400F08BF222900D0704787
:10359000418D61B390F83E10402908BF00F03EB85D
:1035A000416A026811F8013B13614162418D0139A2
:1035B0004185704712F5803F18BF082A1DD1016868
:1035C0004A6822F4E0624A600A6842F400720A60C3
:1035D00000212022016380F83D2090F83E2080F8F1
:1035E0003E10402A08BFFDF7B7BEFDF7B1BE006828
:1035F000416821F4806141607047202ADFD0016872
:103600004A6822F4E0624A6011210163002180F8D7
:103610003E10202180F83D10FDF79ABE90F83D1035
:10362000026D3AB1026D012A0FD10168826CD2B2EB
:103630000A6119E0C26C816C012A11D10268C9B219
:103640001161016D023101657047026D022A0FD1CF
:10365000222914D101680A6842F480720A6003E0EA
:103660000268C1F307211161016D013101657047E5
:1036700000684169090644BF002101617047428D1D
:103680005AB1212909D1416A026811F8013B13613D
:103690004162418D013941857047428D002A08BF42
:1036A0002129EBD101684A6822F4E0624A600A6885
:1036B00042F400720A6000212022016380F83D205C
:1036C00080F83E10FDF748BE2DE9F04740F60004B3
:1036D000C4F2010420460421FDF7D0F9B0FA80F0CD
:1036E0004009050120460821FDF7C8F900282046B9
:1036F0004FF0100108BF0835FDF7C0F9002820463B
:103700004FF0200108BF0435FDF7B8F90028204626
:103710004FF0400108BF0235FDF7B0F9B0FA80F074
:10372000400945EA000140F29E00C2F2000001702B
:10373000C5F3800001F0010601F00803304401F0F8
:10374000100700EBD30001F0020200EB171000EBB2
:10375000520040F2C22540F29C0A40F2C42440F2DA
:10376000C52840F29F0C40F2BC2940F2950E00287B
:10377000C2F20005C2F2000AC2F20004C2F200085E
:10378000C2F2000CC2F20009C2F2000E00F0B980D1
:10379000002F1CBF4FF63007CFF6FF77002B18BF66
:1037A000A7F57A7740F2C023002A18BF07F57A7789
:1037B000C2F20003002E18BF07F5FA67197040F235
:1037C000A1030022C2F200032A80227089F800209F
:1037D000AAF800201A7040F29A03C2F2000340F2E5
:1037E000BE2919708CF800208EF80020C2F2000962
:1037F00097FBF0F5B9F800002323281A00B2C5EBB7
:103800000512584300EB820044F6D352C1F2620223
:1038100080FB0202930928B203EBD27217B240F286
:10382000080285EAE03317F1960FD8BF6FF09507CD
:10383000C2F20002A3EBE030962FA8BF962700B299
:10384000B2F90020B0F5FA6FA8BF4FF4FA60A2F108
:10385000280380B258434BF22D23CEF69D7380FB94
:103860000303D80900EBD370104400B22828D8BF56
:1038700028205FFA81FAAA28A8BFAA20C11909B294
:1038800011F1FF0FA0EB07006FF0FE02D8BF114649
:10389000FF2900B24FF0FF03A8BF194610F1FF0F38
:1038A000C8BF0246FF2AA8BF1A46642301FB03F0E3
:1038B00048F2810401B2CFF6FF74614300EB11407E
:1038C00081B200B2C01100EBD13002FB03F10AB2A9
:1038D000624301EB12418AB209B2C91101EBD23441
:1038E00000F098FB204600F00BFC0120002E08BFE2
:1038F0004FF0FF301AF0110F2CD1B42D26DD01202E
:1039000028E02F884FF6FF7087426FF0180658D0D6
:10391000002F54D140F2C020C2F200000178C80745
:103920002FD1C8062FD498F8000068BB40F2BE2003
:10393000C2F20000B0F900200120502A24DCA6F1D8
:1039400037039A42B8BF4FF0FF301DE015F1B50FB5
:1039500002DCFF2088F8000040F29800C2F200006C
:10396000A9F80050058040F29600C2F200000780DE
:1039700098F8000040F2A001C2F200010870BDE812
:10398000F087012000E0FF20207071B148070AD4C1
:1039900040F2BE20C2F20000008800F5AF7080B295
:1039A000B0F52F7F01D8012000E0002006F11801BA
:1039B00089B28F4289F800008EF8000001D0781C8F
:1039C00028802988AAF80010207898F8003000286C
:1039D00018BF034618060ED140F2BE20C2F2000006
:1039E000B0F900000123502805DCA6F1370290420F
:1039F000B8BF4FF0FF338CF8003099F80000012871
:103A00008EF8000013D1B1F5347F21D840F2A10027
:103A10005AB2C2F200000721002A017076D42D208C
:103A200000F0F8FA301FBDE8F04700F069BB2D291F
:103A300020D840F2A100C2F2000001210170741CE4
:103A4000204600F0E7FA2046BDE8F04700F058BBFA
:103A500040F26630814220D840F2A100C2F200005C
:103A6000082101701D2000F0D5FA1D20BDE8F047A7
:103A700000F046BBCD2913D840F2A1005AB2C2F2E1
:103A800000000221012A01705ADB2B2000F0C2FA4B
:103A9000B01EBDE8F04700F033BBA1F2663001E094
:103AA000A1F1CD0040F63751CDF26831A0FB0112F3
:103AB000510A4FF41B7201FB1200E52811D840F2A5
:103AC000A1005AB2C2F200000321012A017014DBE6
:103AD000292000F09FFA6FF01800BDE8F04700F0D1
:103AE0000FBB8108722919D840F2A1005AB2C2F264
:103AF00000000421012A0170EADB6FF0180000F0D9
:103B000089FA2920BDE8F04700F0FABA301F00F02A
:103B100081FA2D20BDE8F04700F0F2BA40F2112101
:103B2000884215D840F2A100C2F2000005210170C0
:103B3000162000F06FFA1620BDE8F04700F0E0BA5A
:103B4000B01E00F067FA2B20BDE8F04700F0D8BAAD
:103B500040F2A100C2F200000621341D01706FE79F
:103B600080B582B041F21400C4F202000168002264
:103B700041F0010101600068002100F001000190A6
:103B800001980B20FDF7B2FD0B2002B0BDE880408C
:103B9000FDF79ABD2DE9F04786B0002741F21800E5
:103BA000CDE90477CDE90277C4F20200016840F65E
:103BB000004941F0100101600168C4F2010901F0FF
:103BC000100101910199016809F5806541F0040136
:103BD00001600168002201F004010191019901686E
:103BE0004FF4005641F00801016000684FF40051A5
:103BF00000F00800019001982846FCF745FF484670
:103C000043F62041002243F62048FCF73DFF029690
:103C100002AE4FF0010A022428463146CDE903A73F
:103C20000594FCF729FE48463146CDE9028ACDE9E4
:103C30000474FCF721FE06B0BDE8F08780B540F2C1
:103C4000201045F20041C2F20000C4F2000148F227
:103C5000A06200234FF4804CC0F2010280E80E0005
:103C6000C0E9033CC0E90533C0E90733FDF7B4FA06
:103C7000002808BF80BDBDE88040FCF7B1BC000053
:103C800070B598B040F60004C4F2010440F274101C
:103C9000002504F51051C2F2000044F61F6311958F
:103CA000CDE90F55CDE90D55CDE90B55CDE90955B8
:103CB000CDE90755CDE90555CDE90355CDE90155C8
:103CC0003F2280E82600C0E90335C0E90555FEF72C
:103CD000F1FD002818BFFCF783FC40F27410C2F21B
:103CE000000010A9CDE91055FEF79AF8002818BF7A
:103CF000FCF776FC602009900020CDE90A00CDE9B0
:103D00000C00CDE90E0040F27410C2F2000009A9C7
:103D10000022FEF7CFFC002818BFFCF761FC40F240
:103D20007410C2F2000009A90422FEF7C3FC0028A7
:103D300018BFFCF755FC40F274154FF40050C2F266
:103D400000050026069001A928460596CDE90366E0
:103D5000CDE901660896FEF73DF8002818BFFCF78C
:103D60003FFC2868CDE91666B0F1804F1596149691
:103D700015D042F60041C4F20101884225D141F23A
:103D80001800C4F20200016841F0040101600068FB
:103D900000F00400139013984FF440700DE041F2CE
:103DA0001800C4F20200016841F0040101600068DB
:103DB00000F0040013901398032014900220159033
:103DC000179014A92046FCF757FD18B070BD0000ED
:103DD00010B594B040F2BC100021C2F2000040F2D5
:103DE000E734CDE90D11CDE90B110991CDE90711AA
:103DF000CDE90511CDE90311CDE901114FF0804264
:103E00003F23C0E9021401618021C0E900238161E0
:103E1000FEF744F8002818BFFCF7E2FB4FF480508F
:103E20000B9040F2BC10C2F200000BA9FEF706F99D
:103E3000002818BFFCF7D4FB40F2BC10C2F200000F
:103E4000FEF738FD002818BFFCF7CAFB40F2BC1093
:103E50000024C2F2000008A9CDE90844FDF7E0FF04
:103E6000002818BFFCF7BCFB6020CDE9010440F23C
:103E7000BC10C2F2000001A9002203940594FEF7D1
:103E800019FC002818BFFCF7ABFB40F2BC14C2F2CF
:103E9000000401A920460422FEF70CFC002818BFEC
:103EA000FCF79EFB20680021B0F1804FCDE9121194
:103EB0001191109115D042F60041C4F201018842DF
:103EC00028D141F21800C4F20200016841F0040157
:103ED0000160006800F004000F900F984FF44070EC
:103EE0000DE041F21800C4F20200016841F0040143
:103EF0000160006800F004000F900F9803201090FC
:103F000002201190139040F60000C4F2010010A9A5
:103F1000FCF7B2FC14B010BD10B58AB040F204201A
:103F200040F200420021C2F20000C4F200023F232E
:103F30004FF6FF74CDE90811CDE90611CDE9041162
:103F4000CDE90211CDE90011C0E90023C0E9021456
:103F500001618161FDF7A2FF002818BFFCF740FB5B
:103F60004FF48050069040F20420C2F2000006A9EF
:103F7000FEF764F8002818BFFCF732FB40F204207B
:103F8000C2F20000FEF7ECF9002818BFFCF728FB8E
:103F900040F204200024C2F2000004A9CDE9044448
:103FA000FDF73EFF002818BFFCF71AFB0120CDE902
:103FB000010440F20420C2F200006946002200948D
:103FC0000394FEF713F9002818BFFCF709FB0AB0A9
:103FD00010BD000080B540F24C2043F60001C2F253
:103FE0000000C4F2010100234FF00C0C4FF4E13249
:103FF00080E80E00C0E90333C0E905C3C361FEF7E2
:10400000E7FE002808BF80BDBDE88040FCF7E8BAA5
:10401000FEE70000B0B510F1640FD8BF6FF0630089
:104020006428A8BF6420411E89B210F1120F28BF76
:104030006FF01100112940F6004438BF1220C4F27D
:10404000010420B301B2012936DBC5B220464FF48A
:1040500080510122FCF718FD20464FF40051002248
:10406000FCF712FD40F2BC10C2F20000006848F2FA
:104070001F52C16A642D01F1010128BF6425694303
:10408000C5F2EB12A1FB021251098163B0BD40F2EF
:10409000BC10C2F2000000680021816320464FF48A
:1040A00080510022FCF7F0FC20464FF40051002222
:1040B000BDE8B040FCF7E8BC054620464FF480510F
:1040C0000022FCF7E1FC20464FF400510122FCF7EE
:1040D000DBFC40F2BC11C2F2000109686842CA6A06
:1040E000C0B2642828BF64200132504348F21F52F6
:1040F000C5F2EB12A0FB020250098863B0BD0000BC
:10410000B0B510F1640FD8BF6FF063006428A8BF8A
:104110006420411E89B210F1120F28BF6FF0110008
:10412000112940F6004438BF1220C4F2010420B324
:1041300001B2012936DBC5B220464FF4806101226D
:10414000FCF7A2FC20464FF400610022FCF79CFC27
:1041500040F2BC10C2F20000006848F21F52C16A6F
:10416000642D01F1010128BF64256943C5F2EB12FA
:10417000A1FB021251094163B0BD40F2BC10C2F272
:10418000000000680021416320464FF48061002256
:10419000FCF77AFC20464FF400610022BDE8B040F5
:1041A000FCF772BC054620464FF480610022FCF704
:1041B0006BFC20464FF400610122FCF765FC40F2E5
:1041C000BC11C2F2000109686842CA6AC0B2642820
:1041D00028BF64200132504348F21F52C5F2EB124F
:1041E000A0FB020250094863B0BD0000FEE70000DA
:1041F000704700002DE9F04F81B00C460546FCF7F2
:1042000049FC40F2780CC2F2000C40F27401CCF888
:104210000000C2F200010020086040F27C01C2F2FE
:104220000001087040F27F01C2F20001087040F204
:104230007E01C2F20001087040F27D01C2F200016D
:1042400040F2800840F2830940F2860A40F2850B72
:1042500040F2840640F287070870C2F20008C2F2FA
:104260000009C2F2000AC2F2000BC2F20006C2F25A
:10427000000740F2B00188F8000089F800008AF8D1
:1042800000008BF8000030703870C2F200010A683C
:10429000002A00F08E8040F2B402C2F200021268DE
:1042A000002A00F08680A21A962A00F2828009680D
:1042B0001E297ED840F20400C2F20000057040F2D0
:1042C0008200C2F2000005706546FCF7E3FB40F295
:1042D000740128600020C2F20001086040F27C01F5
:1042E000C2F20001087040F27F01C2F200010870C2
:1042F00040F27E01C2F20001087040F27D01C2F27C
:104300000001087040F2BE21C2F2000188F80000EE
:1043100089F800008AF800008BF8000030703870CF
:10432000088040F2C521C2F20001087040F2C021AD
:10433000C2F20001087040F2C421C2F2000108700C
:1043400040F2BC21C2F20001087040F2C221C2F268
:104350000001088040F29801C2F20001088040F29A
:104360009601C2F20001088040F2A001C2F20001F1
:10437000087040F29C01C2F20001088040F2A101E5
:10438000C2F20001087040F29A01C2F20001087006
:1043900040F29F01C2F20001087040F29501C2F2A2
:1043A0000001087040F27000C2F2000004601025A5
:1043B0004CE040F2BE21C2F20001088040F2C5216B
:1043C000C2F20001087040F2C021C2F20001087080
:1043D00040F2C421C2F20001087040F2BC21C2F2D6
:1043E0000001087040F2C221C2F20001088040F2D0
:1043F0009801C2F20001088040F29601C2F2000169
:10440000088040F2A001C2F20001087040F29C0155
:10441000C2F20001088040F2A101C2F2000108705E
:1044200040F29A01C2F20001087040F29F01C2F20C
:104430000001087040F29501C2F20001087040F2DC
:10444000C82104F5E160C2F20001086040F2CC200E
:10445000C2F20000057001B0BDE8F08F70470000A7
:10446000002808BF704710B5DDF810C0DDE9024E26
:10447000C0E900120A2103814481A0F80CE0BCF1DC
:10448000010F98BF4FF0010CA0F80EC0A0F810E08B
:10449000A0F812E0818281610446FCF7FBFAE0613A
:1044A00000202084BDE8104070470000002814BFA1
:1044B00090F8210000207047002808BF704710B511
:1044C000B0F80AC0B0F808E0B42928BFB421ACEBBA
:1044D0000E04614346F617448908C1F2C164A1FB8A
:1044E00004140EEB940189B2714588BF8E46E645EF
:1044F00028BFE6460121012A98BF0A46012B88BF42
:104500001946A0F812E0828281610446FCF7C2FAE3
:10451000218A628AE061881A18BF012084F821008C
:10452000BDE8104070470000002808BF704710B574
:104530000446006818B36168FEF74AFA2168012052
:1045400084F82000D9B1E089C8B1B4F810C023893B
:1045500062899C4588BF6346934228BF13466268C0
:10456000B3FBF0F0096842B1082A04D0042A14BF52
:104570004022382202E03C2200E034228850BDE88C
:1045800010407047002808BF704710B5044690F8E7
:10459000200000283ED094F82100D8B3FCF77AFA26
:1045A000D4E90612821A8A4234D3218A628AE061EF
:1045B000914205D2A08A531A834209DD084405E0DE
:1045C00007D9A08A8B1A834202DD081A208203E0F1
:1045D0002282002084F821002168D9B1E089C8B185
:1045E000B4F810C0238962899C4588BF6346934212
:1045F00028BF13466268B3FBF0F0096842B1082A8D
:1046000004D0042A14BF4022382202E03C2200E0F9
:1046100034228850BDE8104070470000002808BFD1
:10462000704710B544890389B42928BFB421E21A20
:10463000514346F617428908C1F2C162A1FB02123A
:1046400003EB920189B2994298BF1946A14228BF53
:10465000214690F820200182002A4FF0000241827A
:1046600080F8212020D0D0F800C0BCF1000F1BD072
:10467000B0F80EE0BEF1000F16D0994288BF0B468D
:10468000A34228BF23464268B3FBFEF1DCF80000DA
:1046900042B1082A04D0042A14BF4022382202E082
:1046A0003C2200E034228150BDE8104070470000F9
:1046B000FCF798BF7047000040F28100C2F2000092
:1046C0000078704740F2B021C2F2000106C9426092
:1046D0000160704740F21D30C2F2000001780020F6
:1046E000A1F10D02032A38BF0120102908BF0220C2
:1046F00070470000A0B140F22011C2F20001006832
:104700000968884218BF704740F29420C2F2000046
:104710000021017040F29620C2F2000001210170D8
:1047200070470000A0B140F22011C2F20001006801
:104730000968884218BF704740F29420C2F2000016
:104740000021017040F29620C2F2000001210170A8
:104750007047000038B140F22011C2F20001006839
:104760000968884200D0704740F29420C2F20000ED
:104770000178002908BF70470021017040F29520A0
:10478000C2F20000012101707047000038B140F210
:104790002011C2F2000100680968884200D0704709
:1047A00040F29420C2F200000178002908BF70474F
:1047B0000021017040F29520C2F200000121017039
:1047C0007047000080B540F29420C2F20000002142
:1047D000017040F29520C2F20000017040F2962074
:1047E000C2F20000017040F2B020C2F20000C0E945
:1047F000001140F28100C2F200000170FCF74AF99A
:1048000040F21831C2F200010860FCF743F940F2AF
:10481000B821C2F20001086040F21D30C2F200006F
:104820000121017080BD00002DE9F04182B0FCF74C
:1048300031F940F21D34C2F2000421780F2900F250
:104840005882DFE811F010008D01B90028018900BD
:10485000BD01F8015B013F02AE000C026D009F003C
:10486000EE013B00D90040F29420C2F2000000218A
:10487000017040F29520C2F20000017040F29620D3
:10488000C2F20000017040F2B020C2F20000C0E9A4
:10489000001140F28100C2F200000170FCF7FAF84A
:1048A00040F21831C2F200010860FCF7F3F840F260
:1048B000B821C2F200010860012019E240F29425FB
:1048C000C2F200052878002840F0138240F29520BB
:1048D000C2F200000026067040F29620C2F20000EC
:1048E000067001202870FCF7D5F840F2A021C2F232
:1048F0000001086040F2972740F220104FF0080CAA
:10490000C2F20007C2F200005221B4220123CDE915
:10491000007CFCF723FD002840F0D0810F20E7E168
:104920000546FCF7B7F840F29621C2F200010A787A
:10493000002A40F0D08140F29522C2F200021378A2
:10494000002B00F0E8810020107040F21830C2F215
:10495000000005600C20CBE1FCF79CF840F29621AA
:10496000C2F200010A78002A40F0B58140F2952297
:10497000C2F200021378002B00F0CD8100201070ED
:104980000520B5E140F21831C2F200010968411A70
:104990007829C0F0AE8140F2B821C2F2000108606F
:1049A0000FE240F21831C2F200010968401A0528EE
:1049B000C0F09F810A209BE1FCF76CF840F2962141
:1049C000C2F200010A78002A40F0858140F2952267
:1049D000C2F200021378002B00F09D8100201070BD
:1049E00040F29720C2F200000078442802D04D28FF
:1049F00040F07D8103207BE10546FCF74BF840F257
:104A00009621C2F200010A78002A40F0648140F247
:104A10009522C2F200021378002B00F07C81002363
:104A200040F297201370C2F20000068840F2B027CF
:104A300041888288C088C2F20007502E3E8079806B
:104A4000BA80F880C0F0B38189B292B2531880B2B4
:104A50001B1800F076814FF47A7779437A437843D4
:104A6000B1FBF3F1B2FBF3F2B0FBF3F3B6F5167F53
:104A700040F26981A1F1FB00942800F26481A2F167
:104A8000FB00942800F25F81A3F1FB00952880F0E1
:104A90005A8105238BE140F29425C2F20005287863
:104AA000002840F0268140F2A428C2F20008D52058
:104AB00088F8000040F29520C2F20000002606703F
:104AC00040F29620C2F20000012706702F70FBF71B
:104AD000E1FF40F2A021C2F20001086040F2201084
:104AE000C2F20000522181220123CDE90087FCF7A8
:104AF000B1FC002840F0E2800420F9E040F2942567
:104B0000C2F200052878002840F0F38040F2A42883
:104B100040F29520C2F200080127C2F200000026F0
:104B200088F80070067040F29620C2F2000006700D
:104B30002F70FBF7AFFF40F2A021C2F20001086026
:104B400040F22010C2F20000522180220123CDE960
:104B50000087FCF77FFC002840F0B0800820C7E009
:104B600040F29425C2F200052878002840F0C18068
:104B700040F29520C2F200000026067040F2962016
:104B8000C2F20000012706702F70FBF783FF40F28E
:104B9000A021C2F20001086040F2972C40F22010E0
:104BA000C2F2000CC2F20000522192220123CDE990
:104BB00000C7FCF7D3FB002840F08080022097E07C
:104BC00040F29425C2F200052878002840F0918038
:104BD00040F2A42840F29520C2F200080127C2F258
:104BE0000000002688F80070067040F29620C2F29D
:104BF000000006702F70FBF74DFF40F2A021C2F2BB
:104C00000001086040F22010C2F2000052218F2201
:104C10000123CDE90087FCF71DFC00284ED10620BA
:104C200066E040F2B821C2F200010968401A822809
:104C30005FD30E205CE0FBF72DFF40F29621C2F21D
:104C400000010A78002A46D140F29522C2F2000201
:104C50001378002B5FD000201070072048E040F24E
:104C60009425C2F200052878002842D140F2A428F9
:104C7000C2F20008032088F8000040F29520C2F23A
:104C800000000026067040F29620C2F200000127C4
:104C900006702F70FBF7FEFE40F2A021C2F2000169
:104CA000086040F22010C2F200005221802201234D
:104CB000CDE90087FCF7CEFB002840D02E7002B073
:104CC000BDE8F0810546FBF7E5FE40F29621C2F211
:104CD00000010A7882B140F29420C2F20000002262
:104CE000027040F29520C2F2000002700A7010209B
:104CF000207002B0BDE8F08140F29522C2F20002BD
:104D0000137843B10020107040F21830C2F2000056
:104D100005600920ECE740F29423C2F200031F78FB
:104D2000002FE6D040F2A027C2F200073F68C01B68
:104D30003328DED30020187010700870D7E70B20DE
:104D4000D6E7002333E0B1F5D77F09D902F150004F
:104D5000814205D903F15000814201D9012326E0A7
:104D6000B2F5C87F01F1460688BFB24214D8B3F548
:104D7000C37F88BFB34215D8B3F58C7F4FF00603CD
:104D800038BF04230620B2F5A57F98BF0346B1F5CE
:104D9000A57F98BF03460AE003F146008242E6D9A8
:104DA000022304E002F146008342E5D9032340F2E6
:104DB0008100C2F20000037040F2B820C2F200008D
:104DC00005600D2094E7000040F20420C2F20000CC
:104DD000FDF7C8BB406A0021C185C184FDF766BEEE
:104DE00090F84210222918BF70478268B2F5805FA0
:104DF00002D1016900294AD0816AB2F5805F07D0EB
:104E00000AB9026922B10268526802F07F0201E029
:104E1000026852680A70816A01318162C18D01396C
:104E20000A04C18500D070470168CA6822F02002D8
:104E3000CA60CA6822F48072CA604A6922F001021C
:104E40004A61202180F8421000214163026B012A4F
:104E500018BFFEF77BB881B0016300BF016851E85D
:104E6000031F026821F0100142E80313002BF5D163
:104E700001680A68D20606D5002200920A680092EC
:104E8000496800910099818D01B0FDF70DBE016860
:104E9000826A49686FF35F2122F8021B8262BDE7D4
:104EA00040F24C20C2F20000FDF710BEFEE7000009
:104EB00096B0FCF7A5FB0CAC20462821FBF79AF92D
:104EC00001201090102011904FF460100025022650
:104ED000159020460B95CDE90955CDE90755CDE94B
:104EE0000555CDE903550C96CDE91365FCF7BCFDDE
:104EF00018B1EFF3108072B6FEE70F20CDE9070678
:104F00004FF48060CDE90A0507A802210995FCF756
:104F1000A9FC20B1EFF3108072B600BFFEE70220BB
:104F200003904FF40040059003A8FCF71BFC20B150
:104F3000EFF3108072B600BFFEE740F60005C4F242
:104F40000105FEF727FEFEF70BFEFEF741FFFEF719
:104F500075FEFEF7E1FFFFF73DF8FEF791FE002733
:104F600041F21800CDE90E77CDE90C77C4F20200CA
:104F700001684FF0010841F00401016000680CA9CC
:104F800000F00400079007987C200C902846CDF88C
:104F90003880FBF771FC40F2BC14C2F200042046DA
:104FA0000021FDF715FD20460421FDF711FD2068C5
:104FB000476387630020FFF7A3F80020FFF72AF874
:104FC00040F2BC00C2F20000202140F2042405F5AA
:104FD000806281801021C2F20004026082608181BF
:104FE0000461FDF7C5FF20460021FDF72FFAFBF70E
:104FF00051FD40F2A82140F2B00940F2B40A233832
:10500000C2F20001C2F20009C2F2000A0860C9F847
:105010000070CAF80070FFF7D5FB40F2D02540F2CF
:105020007414C2F20005C2F2000440F2DC5B40F6E8
:10503000C4162846214604224FF4FA73CDE9006BCA
:10504000CDF80880FFF70CFACDE9006B40F2F426AA
:10505000C2F200063046214600224FF4FA73CDF822
:105060000880FFF7FDF92846FFF75EFA3046FFF7A4
:105070005BFA28460021FFF7D1FA30466421FFF79A
:10508000CDFA4FF47A70FBF7E3FB40F2BE20C2F298
:105090000000078040F2C520C2F20000077040F215
:1050A000C020C2F20000077040F2C420C2F200002B
:1050B000077040F2BC20C2F20000077040F2C2202C
:1050C000C2F20000078040F29800C2F200000780A0
:1050D00040F29600C2F20000078040F2A000C2F247
:1050E0000000077040F29C00C2F20000078040F20E
:1050F000A100C2F20000077040F29A00C2F2000064
:10510000077040F29F00C2F20000077040F2950065
:10511000C2F2000040F208010770C2F200014B2009
:10512000088040F20601C2F20001088040F21C3003
:10513000C2F20000077040F2BA00C2F2000007702D
:1051400040F2C820C2F20000076040F2CC20C2F258
:105150000000002607700DE04B2040F20801C2F26B
:105160000001088040F20601C2F200010880FEF74B
:10517000ABFA00BFFBF78EFC811B0229FAD306466F
:10518000FBF788FC0546FBF785FC40F2A821C2F23C
:10519000000109680446401A23280AD340F2A820D7
:1051A000C2F20000046040F2BC00C2F20000FDF751
:1051B00033FF40F2BC00C2F20000FDF7E9FE811EA1
:1051C000B1F5957F9CBFC9F80000CAF80040D9F836
:1051D000000038B1DAF80000201A972824BF002018
:1051E000C9F80000D9F8000040F28C01C2F20001B9
:1051F0000860DAF8000040F28803211A0A46C2F279
:105200000003002808BF4FF0FF321A60D9F80020D1
:1052100018BF0120002A18BF012297294FF0000172
:1052200038BF0121084040F290011040C2F2000155
:105230000870FFF7F9FA0CA8FFF744FABDF8304000
:10524000BDF83280BDF83470BDF836B0FFF742FAD1
:1052500040F2AE01C2F200010870FFF72DFA40F2F1
:10526000A801C2F20001087040F2A600C2F20000DC
:10527000048040F2AC00C2F20000A0F8008040F2CE
:10528000AA00C2F20000078040F2A400C2F20000AF
:10529000A0F800B040F2D020C2F20000FFF772F98F
:1052A00040F2F420C2F20000FFF76CF940F2CC208B
:1052B000C2F20000007840F2A201C2F200010870C0
:1052C00040F2BA01C2F20001097840F29402C2F23F
:1052D0000002117040F21C31C2F20001097840F264
:1052E000A302C2F20002117040F20401C2F20001F6
:1052F000097840F282021428C2F20002117000F212
:105300009B82DFE810F01500A002180208042A04AE
:105310004502CB025003860458047C016C02A301B1
:10532000F300C8039902E803D804BA048800CA014C
:1053300040F2C820C2F2000000688542FFF40CAFC2
:10534000D9F8000000283FF407AFDAF800104B202E
:1053500000293FF402AF691A96293FF6FEAED9F84C
:105360000000032800F2118640F208000024C2F277
:105370000000048040F20600C2F200000480002019
:10538000FEF7BEFE0020FEF745FEFBF783FB40F272
:105390007801C2F20001086040F27400C2F200001D
:1053A000046040F27C00C2F20000047040F27F0012
:1053B000C2F20000047040F27E00C2F200000470ED
:1053C00040F27D00C2F20000047040F28000C2F2A0
:1053D0000000047040F28300C2F20000047040F24A
:1053E0008600C2F20000047040F28500C2F20000A4
:1053F000047040F28400C2F20000047040F28700A2
:10540000C2F20000047040F27000C2F200000560B9
:10541000012000F004BD6FF01A00FEF7FBFD29200B
:10542000FEF76EFE40F27000C2F200000068281A1B
:10543000B0F5D27FFFF49EAE40F2BE210020C2F252
:105440000001088040F2C521C2F20001087040F25C
:10545000C021C2F20001087040F2C421C2F2000172
:10546000087040F2BC21C2F20001087040F2C22173
:10547000C2F20001088040F29801C2F200010880E7
:1054800040F29601C2F20001088040F2A001C2F28F
:105490000001087040F29C01C2F20001088040F255
:1054A000A101C2F20001087040F29A01C2F20001AB
:1054B000087040F29F01C2F20001087040F29501AD
:1054C000C2F20001087040F27000C2F2000040F227
:1054D000C821056005F6B830C2F20001086040F24C
:1054E000CC20C2F200001421017043E60020FEF738
:1054F00007FE0020FEF78EFD40F2D020C2F2000031
:10550000FEF7D4FF30B940F2F420C2F20000FEF7FB
:10551000CDFF60B1FBF7BEFA40F27001C2F20001AC
:105520000968401A41F294118842FFF423AE40F218
:10553000D020C2F200000021FFF770F840F2F42002
:10554000C2F200006421FFF769F840F2B8010020C0
:10555000C2F20001088040F2BE21C2F200010880C0
:1055600040F2C521C2F20001087040F2C021C2F22F
:105570000001087040F2C421C2F20001087040F23C
:10558000BC21C2F20001087040F2C221C2F2000147
:10559000088040F29801C2F20001088040F29601B2
:1055A000C2F20001088040F2A001C2F200010870BE
:1055B00040F29C01C2F20001088040F2A101C2F257
:1055C0000001087040F29A01C2F20001087040F236
:1055D0009F01C2F20001087040F29501C2F2000181
:1055E000087040F2C82105F6C410C2F2000108603C
:1055F00040F2CC20C2F200000E210170BAE500207A
:10560000FEF77EFD0020FEF705FD40F27000C2F2BD
:1056100000000068281AB0F5167FFFF4ABAD40F229
:10562000F420C2F20000642108220C23FEF744FF9C
:10563000FBF730FA40F27001C2F20001086040F25C
:10564000CC20C2F200000B21017093E50020FEF790
:1056500057FD0020FEF7DEFC40F27000C2F20000B1
:105660000068281AB0F5487FFFF484AD40F2D020DE
:10567000C2F20000002108220C23FEF71DFFFBF7F9
:1056800009FA40F27001C2F20001086040F2CC2039
:10569000C2F200000D2101706CE540F20800C2F278
:1056A00000004121018040F20600C2F200000180AA
:1056B000FEF70AF840F60007C4F201073846042155
:1056C000FBF7DCF9B0FA80F0400904013846082104
:1056D000FBF7D4F9002838464FF0100108BF083412
:1056E000FBF7CCF9002838464FF0200108BF0434FE
:1056F000FBF7C4F9002838464FF0400108BF0234D8
:10570000FBF7BCF9B0FA80F04009204300063FF4F3
:1057100031AD40F2040140F2C82205F6B830C2F2C1
:105720000001C2F200020978106040F2CC20C2F2FF
:10573000000001701EE50020FEF7E2FC0020FEF7ED
:1057400069FC40F2D020C2F20000FEF7AFFE30B993
:1057500040F2F420C2F20000FEF7A8FE60B1FBF7B1
:1057600099F940F27001C2F200010968401A41F251
:1057700094118842FFF4FEAC40F27000C2F20000C7
:10578000056040F2CC20C2F2000003210170F1E478
:105790000020FEF7B5FC0020FEF73CFC40F2700054
:1057A000C2F200000068281AB0F5487FFFF4E2ACAE
:1057B00040F2D020C2F20000002108220C23FEF7A4
:1057C0007BFEFBF767F940F27001C2F2000108604E
:1057D00040F2CC20C2F2000006210170CAE4002091
:1057E000FEF78EFC0020FEF715FC40F2D020C2F23E
:1057F0000000FEF75BFE30B940F2F420C2F2000078
:10580000FEF754FE60B1FBF745F940F27001C2F2B9
:1058100000010968401A41F294118842FFF4AAACD1
:1058200040F27000C2F20000056040F2CC20C2F2EB
:1058300000000C2101709DE40020FEF761FC0020B7
:10584000FEF7E8FB96E40020FEF75AFC0020FEF786
:10585000E1FB0CA8FAF776FD002800F0E7829DF83E
:10586000300040F21C31C2F20001087040F2BA016F
:105870000120C2F20001087040F2D020C2F2000004
:105880005A2108220C23FEF717FEFBF703F940F21A
:105890007001C2F2000108600220C0E20020FEF7A1
:1058A0002FFC0020FEF7B6FB40F2D020C2F2000031
:1058B000FEF7FCFD30B940F2F420C2F20000FEF722
:1058C000F5FD60B1FBF7E6F840F27001C2F20001AD
:1058D0000968401A41F294118842FFF44BAC40F23F
:1058E000D020C2F200000021FEF798FE40F2F42022
:1058F000C2F200002821FEF791FE40F2BE210020F6
:10590000C2F20001088040F2C521C2F20001087015
:1059100040F2C021C2F20001087040F2C421C2F27C
:105920000001087040F2BC21C2F20001087040F290
:10593000C221C2F20001088040F29801C2F20001C7
:10594000088040F29601C2F20001088040F2A001F6
:10595000C2F20001087040F29C01C2F2000108800E
:1059600040F2A101C2F20001087040F29A01C2F2B5
:105970000001087040F29F01C2F20001087040F27D
:105980009501C2F20001087040F2C82105F6C4106A
:10599000C2F20001086040F2CC20C2F200000721F0
:1059A0000170FFF7E7BB40F2C820C2F200000068B8
:1059B0008542C0F03883D9F80000002800F0338316
:1059C000DAF80010412000293FF4C7AB691A962984
:1059D0003FF6C3ABD9F80000032800F2FA8240F288
:1059E00008000024C2F20000048040F20600C2F267
:1059F000000004800020FEF783FB0020FEF70AFB76
:105A0000FBF748F840F27801C2F20001086040F26A
:105A10007400C2F20000046040F27C00C2F2000098
:105A2000047040F27F00C2F20000047040F27E0079
:105A3000C2F20000047040F27D00C2F20000047067
:105A400040F28000C2F20000047040F28300C2F213
:105A50000000047040F28600C2F20000047040F2C0
:105A60008500C2F20000047040F28400C2F200001F
:105A7000047040F28700C2F20000047040F270002F
:105A8000C2F20000056040F2CC20C2F20000082102
:105A90000170FFF76FBBD9F80000002800F0088202
:105AA000DAF800104B20002900F00382691A9629C9
:105AB00000F2FF81D9F80000032800F2D58140F2FE
:105AC00008010020C2F20001088040F20601C2F283
:105AD000000108804CE26FF01A00841D2046FEF79A
